{
  "contractName": "lockerFactory",
  "abi": [
    {
      "inputs": [],
      "stateMutability": "nonpayable",
      "type": "constructor"
    },
    {
      "anonymous": false,
      "inputs": [
        {
          "indexed": true,
          "internalType": "address",
          "name": "creator",
          "type": "address"
        },
        {
          "indexed": true,
          "internalType": "address",
          "name": "contractAddress",
          "type": "address"
        },
        {
          "indexed": false,
          "internalType": "uint256",
          "name": "amount",
          "type": "uint256"
        },
        {
          "indexed": false,
          "internalType": "uint256",
          "name": "timeCreated",
          "type": "uint256"
        },
        {
          "indexed": false,
          "internalType": "uint256",
          "name": "id",
          "type": "uint256"
        }
      ],
      "name": "NewLockerCreated",
      "type": "event"
    },
    {
      "inputs": [
        {
          "internalType": "uint256",
          "name": "",
          "type": "uint256"
        }
      ],
      "name": "lockersDetails",
      "outputs": [
        {
          "internalType": "address",
          "name": "lockerAddress",
          "type": "address"
        },
        {
          "internalType": "address",
          "name": "sender",
          "type": "address"
        },
        {
          "internalType": "address",
          "name": "receiver",
          "type": "address"
        },
        {
          "internalType": "uint256",
          "name": "amount",
          "type": "uint256"
        },
        {
          "internalType": "uint256",
          "name": "id",
          "type": "uint256"
        }
      ],
      "stateMutability": "view",
      "type": "function"
    },
    {
      "inputs": [],
      "name": "manager",
      "outputs": [
        {
          "internalType": "address",
          "name": "",
          "type": "address"
        }
      ],
      "stateMutability": "view",
      "type": "function"
    },
    {
      "inputs": [],
      "name": "numberOfLockers",
      "outputs": [
        {
          "internalType": "uint256",
          "name": "",
          "type": "uint256"
        }
      ],
      "stateMutability": "view",
      "type": "function"
    },
    {
      "inputs": [
        {
          "internalType": "address payable",
          "name": "_receiver",
          "type": "address"
        }
      ],
      "name": "createNewLocker",
      "outputs": [],
      "stateMutability": "payable",
      "type": "function"
    }
  ],
  "bytecode": "0x608060405234801561001057600080fd5b50336000806101000a81548173ffffffffffffffffffffffffffffffffffffffff021916908373ffffffffffffffffffffffffffffffffffffffff160217905550611249806100606000396000f3fe60806040526004361061005c576000357c010000000000000000000000000000000000000000000000000000000090048063481c6a7514610061578063609a145a1461008c57806381962e83146100b7578063c392d636146100d3575b600080fd5b34801561006d57600080fd5b50610076610114565b6040516100839190610669565b60405180910390f35b34801561009857600080fd5b506100a1610138565b6040516100ae919061073c565b60405180910390f35b6100d160048036038101906100cc919061058f565b61013e565b005b3480156100df57600080fd5b506100fa60048036038101906100f591906105b8565b6104c2565b60405161010b9594939291906106c9565b60405180910390f35b60008054906101000a900473ffffffffffffffffffffffffffffffffffffffff1681565b60015481565b33813460015460405161015090610558565b61015d9493929190610684565b604051809103906000f080158015610179573d6000803e3d6000fd5b50600360006101000a81548173ffffffffffffffffffffffffffffffffffffffff021916908373ffffffffffffffffffffffffffffffffffffffff1602179055506040518060a00160405280600360009054906101000a900473ffffffffffffffffffffffffffffffffffffffff1673ffffffffffffffffffffffffffffffffffffffff1681526020013373ffffffffffffffffffffffffffffffffffffffff1681526020018273ffffffffffffffffffffffffffffffffffffffff16815260200134815260200160015481525060026000600154815260200190815260200160002060008201518160000160006101000a81548173ffffffffffffffffffffffffffffffffffffffff021916908373ffffffffffffffffffffffffffffffffffffffff16021790555060208201518160010160006101000a81548173ffffffffffffffffffffffffffffffffffffffff021916908373ffffffffffffffffffffffffffffffffffffffff16021790555060408201518160020160006101000a81548173ffffffffffffffffffffffffffffffffffffffff021916908373ffffffffffffffffffffffffffffffffffffffff1602179055506060820151816003015560808201518160040155905050600080600360009054906101000a900473ffffffffffffffffffffffffffffffffffffffff1673ffffffffffffffffffffffffffffffffffffffff163460405161039190610654565b60006040518083038185875af1925050503d80600081146103ce576040519150601f19603f3d011682016040523d82523d6000602084013e6103d3565b606091505b509150915081610418576040517f08c379a000000000000000000000000000000000000000000000000000000000815260040161040f9061071c565b60405180910390fd5b600360009054906101000a900473ffffffffffffffffffffffffffffffffffffffff1673ffffffffffffffffffffffffffffffffffffffff163373ffffffffffffffffffffffffffffffffffffffff167fb20e87918b878c53fa37b89a909256c5602b59b1bd1ab116383b123739287766344260015460405161049d93929190610757565b60405180910390a3600160008154809291906104b8906107f8565b9190505550505050565b60026020528060005260406000206000915090508060000160009054906101000a900473ffffffffffffffffffffffffffffffffffffffff16908060010160009054906101000a900473ffffffffffffffffffffffffffffffffffffffff16908060020160009054906101000a900473ffffffffffffffffffffffffffffffffffffffff16908060030154908060040154905085565b610949806108cb83390190565b6000813590506105748161089c565b92915050565b600081359050610589816108b3565b92915050565b6000602082840312156105a157600080fd5b60006105af84828501610565565b91505092915050565b6000602082840312156105ca57600080fd5b60006105d88482850161057a565b91505092915050565b6105ea816107bc565b82525050565b6105f9816107aa565b82525050565b600061060c601483610799565b915061061782610870565b602082019050919050565b600061062f60008361078e565b915061063a82610899565b600082019050919050565b61064e816107ee565b82525050565b600061065f82610622565b9150819050919050565b600060208201905061067e60008301846105f0565b92915050565b600060808201905061069960008301876105f0565b6106a660208301866105e1565b6106b36040830185610645565b6106c06060830184610645565b95945050505050565b600060a0820190506106de60008301886105f0565b6106eb60208301876105f0565b6106f860408301866105f0565b6107056060830185610645565b6107126080830184610645565b9695505050505050565b60006020820190508181036000830152610735816105ff565b9050919050565b60006020820190506107516000830184610645565b92915050565b600060608201905061076c6000830186610645565b6107796020830185610645565b6107866040830184610645565b949350505050565b600081905092915050565b600082825260208201905092915050565b60006107b5826107ce565b9050919050565b60006107c7826107ce565b9050919050565b600073ffffffffffffffffffffffffffffffffffffffff82169050919050565b6000819050919050565b6000610803826107ee565b91507fffffffffffffffffffffffffffffffffffffffffffffffffffffffffffffffff82141561083657610835610841565b5b600182019050919050565b7f4e487b7100000000000000000000000000000000000000000000000000000000600052601160045260246000fd5b7f4661696c656420746f2073656e64204574686572000000000000000000000000600082015250565b50565b6108a5816107bc565b81146108b057600080fd5b50565b6108bc816107ee565b81146108c757600080fd5b5056fe608060405260405161094938038061094983398181016040528101906100259190610117565b836000806101000a81548173ffffffffffffffffffffffffffffffffffffffff021916908373ffffffffffffffffffffffffffffffffffffffff16021790555082600160006101000a81548173ffffffffffffffffffffffffffffffffffffffff021916908373ffffffffffffffffffffffffffffffffffffffff16021790555081600281905550806003819055506000600460006101000a81548160ff0219169083151502179055505050505061020d565b6000815190506100e7816101c8565b92915050565b6000815190506100fc816101df565b92915050565b600081519050610111816101f6565b92915050565b6000806000806080858703121561012d57600080fd5b600061013b878288016100d8565b945050602061014c878288016100ed565b935050604061015d87828801610102565b925050606061016e87828801610102565b91505092959194509250565b60006101858261019e565b9050919050565b60006101978261019e565b9050919050565b600073ffffffffffffffffffffffffffffffffffffffff82169050919050565b6000819050919050565b6101d18161017a565b81146101dc57600080fd5b50565b6101e88161018c565b81146101f357600080fd5b50565b6101ff816101be565b811461020a57600080fd5b50565b61072d8061021c6000396000f3fe60806040526004361061009c576000357c010000000000000000000000000000000000000000000000000000000090048063aa8c217c1161006b578063aa8c217c1461011c578063ad0123ee14610147578063af640d0f14610172578063f7260d3e1461019d576100a3565b806312065fe0146100a55780631e638f2e146100d057806367e404ce146100da5780637d94ad9814610105576100a3565b366100a357005b005b3480156100b157600080fd5b506100ba6101c8565b6040516100c791906105e8565b60405180910390f35b6100d86101e7565b005b3480156100e657600080fd5b506100ef610350565b6040516100fc9190610549565b60405180910390f35b34801561011157600080fd5b5061011a610374565b005b34801561012857600080fd5b5061013161044a565b60405161013e91906105e8565b60405180910390f35b34801561015357600080fd5b5061015c610450565b604051610169919061057f565b60405180910390f35b34801561017e57600080fd5b50610187610463565b60405161019491906105e8565b60405180910390f35b3480156101a957600080fd5b506101b2610469565b6040516101bf9190610564565b60405180910390f35b60003073ffffffffffffffffffffffffffffffffffffffff1631905090565b600160009054906101000a900473ffffffffffffffffffffffffffffffffffffffff1673ffffffffffffffffffffffffffffffffffffffff163373ffffffffffffffffffffffffffffffffffffffff161461024157600080fd5b60011515600460009054906101000a900460ff1615151461026157600080fd5b6000803373ffffffffffffffffffffffffffffffffffffffff1660025460405161028a90610534565b60006040518083038185875af1925050503d80600081146102c7576040519150601f19603f3d011682016040523d82523d6000602084013e6102cc565b606091505b509150915081610311576040517f08c379a00000000000000000000000000000000000000000000000000000000081526004016103089061059a565b60405180910390fd5b7fa78166922a3edb67346d5c1dda3562f04024b00ec647349dff668d4af5ec90b460025442604051610344929190610603565b60405180910390a15050565b60008054906101000a900473ffffffffffffffffffffffffffffffffffffffff1681565b60008054906101000a900473ffffffffffffffffffffffffffffffffffffffff1673ffffffffffffffffffffffffffffffffffffffff163373ffffffffffffffffffffffffffffffffffffffff16146103f6577f4e487b7100000000000000000000000000000000000000000000000000000000600052600160045260246000fd5b6001600460006101000a81548160ff0219169083151502179055507f7b55cf2d0ad44e1edb020342abb510c222a20e1f1addf2b9ae455febc230898a4260405161044091906105ba565b60405180910390a1565b60025481565b600460009054906101000a900460ff1681565b60035481565b600160009054906101000a900473ffffffffffffffffffffffffffffffffffffffff1681565b6104988161065a565b82525050565b6104a781610648565b82525050565b6104b68161066c565b82525050565b60006104c9601483610637565b91506104d4826106a2565b602082019050919050565b60006104ec601c83610637565b91506104f7826106cb565b602082019050919050565b600061050f60008361062c565b915061051a826106f4565b600082019050919050565b61052e81610698565b82525050565b600061053f82610502565b9150819050919050565b600060208201905061055e600083018461049e565b92915050565b6000602082019050610579600083018461048f565b92915050565b600060208201905061059460008301846104ad565b92915050565b600060208201905081810360008301526105b3816104bc565b9050919050565b600060408201905081810360008301526105d3816104df565b90506105e26020830184610525565b92915050565b60006020820190506105fd6000830184610525565b92915050565b60006040820190506106186000830185610525565b6106256020830184610525565b9392505050565b600081905092915050565b600082825260208201905092915050565b600061065382610678565b9050919050565b600061066582610678565b9050919050565b60008115159050919050565b600073ffffffffffffffffffffffffffffffffffffffff82169050919050565b6000819050919050565b7f4661696c656420746f2073656e64204574686572000000000000000000000000600082015250565b7f5061796d656e742072656365697665642073756363657366756c6c7900000000600082015250565b5056fea26469706673582212201fce9eaaf4734245be47582ea556d5ab505d6cce50b24a9d9ffd244ff0a9217564736f6c63430008020033a2646970667358221220792c01c633bc3c8842bc3fc87c4cdea71e879d0f882fcc264bcf42f44ad4a56264736f6c63430008020033",
  "immutableReferences": {},
  "source": "pragma solidity >=0.7.0 <0.9.0;\r\n\r\ncontract lockerFactory {\r\n    \r\n    address public manager;\r\n    uint public numberOfLockers;\r\n    \r\n    struct Lockers {\r\n        address lockerAddress;\r\n        address sender;\r\n        address receiver;\r\n        uint amount;\r\n        uint id;\r\n    }\r\n    \r\n    mapping (uint => Lockers) public lockersDetails;\r\n    \r\n    address payable lockerCreated;\r\n    \r\n    constructor () {\r\n        manager = msg.sender;\r\n    }\r\n    \r\n   function createNewLocker (address payable _receiver) public payable {\r\n        lockerCreated = payable(address (new Locker(msg.sender, _receiver, msg.value, numberOfLockers)));\r\n        lockersDetails[numberOfLockers] = Lockers (lockerCreated, msg.sender, _receiver, msg.value, numberOfLockers);       \r\n        (bool sent, bytes memory data) = lockerCreated.call{value: msg.value}(\"\");\r\n        require(sent, \"Failed to send Ether\");\r\n        emit NewLockerCreated (msg.sender, lockerCreated, msg.value, block.timestamp, numberOfLockers);\r\n        numberOfLockers++;\r\n    }\r\n    \r\n    event NewLockerCreated (address indexed creator, address indexed contractAddress, uint amount, uint timeCreated, uint id);\r\n    \r\n    \r\n    \r\n}\r\n\r\ncontract Locker {\r\n    \r\n    address public sender;\r\n    address payable public receiver;\r\n    uint public amount;\r\n    uint public id;\r\n    bool public isReceived;\r\n    \r\n    \r\n    receive() external payable {}\r\n    \r\n    fallback() external payable {}\r\n\r\n    function getBalance() public view returns (uint) {\r\n        return address(this).balance;\r\n    }\r\n    \r\n    \r\n    constructor (address _sender, address payable _receiver, uint _amount, uint _id) payable {\r\n        sender = _sender;\r\n        receiver = _receiver;\r\n        amount = _amount;\r\n        id = _id;\r\n        isReceived = false;\r\n    }\r\n    \r\n    function confirmReceipt () public {\r\n        assert (msg.sender == sender);\r\n        isReceived = true;\r\n        emit paymentReceived (\"Payment received succesfully\", block.timestamp);\r\n    }\r\n    \r\n    function collectPayment () public payable {\r\n        require (msg.sender == receiver);\r\n        require (isReceived == true);\r\n        (bool sent, bytes memory data) = msg.sender.call{value: amount}(\"\");\r\n        require(sent, \"Failed to send Ether\");\r\n        emit paymentCollected (amount, block.timestamp);\r\n       \r\n    }\r\n    \r\n    event paymentReceived (string info, uint time);\r\n    event paymentCollected (uint amount, uint time);\r\n    \r\n}",
  "sourcePath": "C:/Users/valeria/Documents/eth/testeando/contracts/Locker.sol",
  "compiler": {
    "name": "solc",
    "version": "0.8.2+commit.661d1103.Emscripten.clang"
  },
  "schemaVersion": "3.3.4",
  "updatedAt": "2021-06-16T10:27:29.749Z",
  "devdoc": {
    "kind": "dev",
    "methods": {},
    "version": 1
  },
  "userdoc": {
    "kind": "user",
    "methods": {},
    "version": 1
  }
}